:0400000053EF00F0CA
:0E0008002A82FACF01F0FBCF02F0A2EF00F047
:100018002A80D8CF0FF0E8CF10F0E0CF11F0FACF58
:1000280012F0FBCF13F0E9CF14F0EACF15F0E1CFCF
:1000380016F0E2CF17F0D9CF18F0DACF19F0F3CFD6
:100048001AF0F4CF1BF0F6CF1CF0F7CF1DF0F8CF65
:100058001EF0F5CF1FF01FC0F5FF1EC0F8FF1DC032
:10006800F7FF1CC0F6FF1BC0F4FF1AC0F3FF19C04E
:10007800DAFF18C0D9FF17C0E2FF16C0E1FF15C0AC
:10008800EAFF14C0E9FF13C0FBFF12C0FAFF11C05A
:10009800E0FF10C0E8FF0FC0D8FF2A90100007EF5C
:1000A80001F029507F0B296E29C082FF000E216EB6
:1000B800640E206ED8EC00F029508009296E29C002
:1000C80082FF000E216E640E206ED8EC00F02950DD
:1000D8004009296E29C082FF29502009296E29C0AC
:1000E80082FF030E216EE80E206ED8EC00F0295036
:1000F800DF0B296E29C082FF030E216EE80E206EE9
:10010800D8EC00F02950BF0B296E29C082FF295076
:100118002009296E29C082FF030E216EE80E206E89
:10012800D8EC00F02950DF0B296E29C082FF030E9E
:10013800216EE80E206ED8EC00F0C9D7E9CF03F0A5
:10014800EACF04F0E1CF05F0E2CF06F0D9CF07F00F
:10015800DACF08F0F3CF09F0F4CF0AF0F6CF0BF0BE
:10016800F7CF0CF0F8CF0DF0F5CF0EF00EC0F5FF7D
:100178000DC0F8FF0CC0F7FF0BC0F6FF0AC0F4FF74
:1001880009C0F3FF08C0DAFF07C0D9FF06C0E2FFC5
:1001980005C0E1FF04C0EAFF03C0E9FF02C0FBFF9E
:1001A80001C0FAFF2A921100000E246E000E236E81
:1001B800000E266E000E256E04D0234A242A254AF6
:1001C800262A2050255C2650800A226E2150800A5B
:1001D8002258D8B01200F1D7000E936E000E946E1C
:1001E800000E926E000E276E000E286E000E296E0D
:1001F80027C080FF28C081FF29C082FF806855EC96
:1002080000F053EF00F0286A276A2A902A9200012A
:04021800F0EF00F013
:020000040020DA
:08000000FFFFFFFFFFFFFFFF00
:020000040030CA
:0E000000FF251F3FFFBF85FF0FC00FE00F4021
:00000001FF
